{
  "_format": "hh-sol-artifact-1",
  "contractName": "ModifyVariable",
  "sourceName": "contracts/ModifyVariable.sol",
  "abi": [
    {
      "inputs": [
        {
          "internalType": "uint256",
          "name": "_x",
          "type": "uint256"
        },
        {
          "internalType": "string",
          "name": "_s",
          "type": "string"
        }
      ],
      "stateMutability": "nonpayable",
      "type": "constructor"
    },
    {
      "inputs": [],
      "name": "modifyToLeet",
      "outputs": [],
      "stateMutability": "nonpayable",
      "type": "function"
    },
    {
      "inputs": [],
      "name": "s",
      "outputs": [
        {
          "internalType": "string",
          "name": "",
          "type": "string"
        }
      ],
      "stateMutability": "view",
      "type": "function"
    },
    {
      "inputs": [],
      "name": "x",
      "outputs": [
        {
          "internalType": "uint256",
          "name": "",
          "type": "uint256"
        }
      ],
      "stateMutability": "view",
      "type": "function"
    }
  ],
  "bytecode": "0x608060405234801561001057600080fd5b506040516106f63803806106f683398181016040528101906100329190610177565b81600081905550806001908051906020019061004f929190610057565b505050610347565b8280546100639061025e565b90600052602060002090601f01602090048101928261008557600085556100cc565b82601f1061009e57805160ff19168380011785556100cc565b828001600101855582156100cc579182015b828111156100cb5782518255916020019190600101906100b0565b5b5090506100d991906100dd565b5090565b5b808211156100f65760008160009055506001016100de565b5090565b600061010d610108846101f0565b6101cb565b90508281526020810184848401111561012557600080fd5b61013084828561022b565b509392505050565b600082601f83011261014957600080fd5b81516101598482602086016100fa565b91505092915050565b60008151905061017181610330565b92915050565b6000806040838503121561018a57600080fd5b600061019885828601610162565b925050602083015167ffffffffffffffff8111156101b557600080fd5b6101c185828601610138565b9150509250929050565b60006101d56101e6565b90506101e18282610290565b919050565b6000604051905090565b600067ffffffffffffffff82111561020b5761020a6102f0565b5b6102148261031f565b9050602081019050919050565b6000819050919050565b60005b8381101561024957808201518184015260208101905061022e565b83811115610258576000848401525b50505050565b6000600282049050600182168061027657607f821691505b6020821081141561028a576102896102c1565b5b50919050565b6102998261031f565b810181811067ffffffffffffffff821117156102b8576102b76102f0565b5b80604052505050565b7f4e487b7100000000000000000000000000000000000000000000000000000000600052602260045260246000fd5b7f4e487b7100000000000000000000000000000000000000000000000000000000600052604160045260246000fd5b6000601f19601f8301169050919050565b61033981610221565b811461034457600080fd5b50565b6103a0806103566000396000f3fe608060405234801561001057600080fd5b50600436106100415760003560e01c80630c55699c1461004657806386b714e214610064578063e164062214610082575b600080fd5b61004e61008c565b60405161005b9190610284565b60405180910390f35b61006c610092565b6040516100799190610262565b60405180910390f35b61008a610120565b005b60005481565b6001805461009f906102f8565b80601f01602080910402602001604051908101604052809291908181526020018280546100cb906102f8565b80156101185780601f106100ed57610100808354040283529160200191610118565b820191906000526020600020905b8154815290600101906020018083116100fb57829003601f168201915b505050505081565b6105396000819055506040518060400160405280600381526020017f627965000000000000000000000000000000000000000000000000000000000081525060019080519060200190610174929190610177565b50565b828054610183906102f8565b90600052602060002090601f0160209004810192826101a557600085556101ec565b82601f106101be57805160ff19168380011785556101ec565b828001600101855582156101ec579182015b828111156101eb5782518255916020019190600101906101d0565b5b5090506101f991906101fd565b5090565b5b808211156102165760008160009055506001016101fe565b5090565b60006102258261029f565b61022f81856102aa565b935061023f8185602086016102c5565b61024881610359565b840191505092915050565b61025c816102bb565b82525050565b6000602082019050818103600083015261027c818461021a565b905092915050565b60006020820190506102996000830184610253565b92915050565b600081519050919050565b600082825260208201905092915050565b6000819050919050565b60005b838110156102e35780820151818401526020810190506102c8565b838111156102f2576000848401525b50505050565b6000600282049050600182168061031057607f821691505b602082108114156103245761032361032a565b5b50919050565b7f4e487b7100000000000000000000000000000000000000000000000000000000600052602260045260246000fd5b6000601f19601f830116905091905056fea264697066735822122064b861a75245acd301a94f25a0d51c0abc5327bf58afbc28b5624f31825db11d64736f6c63430008040033",
  "linkReferences": {},
  "deployedLinkReferences": {}
}