{"contracts/ModifyVariable.sol":{"ModifyVariable":{"abi":[{"inputs":[{"internalType":"uint256","name":"_x","type":"uint256"},{"internalType":"string","name":"_s","type":"string"}],"stateMutability":"nonpayable","type":"constructor"},{"inputs":[],"name":"modifyToLeet","outputs":[],"stateMutability":"nonpayable","type":"function"},{"inputs":[],"name":"s","outputs":[{"internalType":"string","name":"","type":"string"}],"stateMutability":"view","type":"function"},{"inputs":[],"name":"x","outputs":[{"internalType":"uint256","name":"","type":"uint256"}],"stateMutability":"view","type":"function"}],"evm":{"bytecode":{"linkReferences":{},"object":"608060405234801561001057600080fd5b506040516106f63803806106f683398181016040528101906100329190610177565b81600081905550806001908051906020019061004f929190610057565b505050610347565b8280546100639061025e565b90600052602060002090601f01602090048101928261008557600085556100cc565b82601f1061009e57805160ff19168380011785556100cc565b828001600101855582156100cc579182015b828111156100cb5782518255916020019190600101906100b0565b5b5090506100d991906100dd565b5090565b5b808211156100f65760008160009055506001016100de565b5090565b600061010d610108846101f0565b6101cb565b90508281526020810184848401111561012557600080fd5b61013084828561022b565b509392505050565b600082601f83011261014957600080fd5b81516101598482602086016100fa565b91505092915050565b60008151905061017181610330565b92915050565b6000806040838503121561018a57600080fd5b600061019885828601610162565b925050602083015167ffffffffffffffff8111156101b557600080fd5b6101c185828601610138565b9150509250929050565b60006101d56101e6565b90506101e18282610290565b919050565b6000604051905090565b600067ffffffffffffffff82111561020b5761020a6102f0565b5b6102148261031f565b9050602081019050919050565b6000819050919050565b60005b8381101561024957808201518184015260208101905061022e565b83811115610258576000848401525b50505050565b6000600282049050600182168061027657607f821691505b6020821081141561028a576102896102c1565b5b50919050565b6102998261031f565b810181811067ffffffffffffffff821117156102b8576102b76102f0565b5b80604052505050565b7f4e487b7100000000000000000000000000000000000000000000000000000000600052602260045260246000fd5b7f4e487b7100000000000000000000000000000000000000000000000000000000600052604160045260246000fd5b6000601f19601f8301169050919050565b61033981610221565b811461034457600080fd5b50565b6103a0806103566000396000f3fe608060405234801561001057600080fd5b50600436106100415760003560e01c80630c55699c1461004657806386b714e214610064578063e164062214610082575b600080fd5b61004e61008c565b60405161005b9190610284565b60405180910390f35b61006c610092565b6040516100799190610262565b60405180910390f35b61008a610120565b005b60005481565b6001805461009f906102f8565b80601f01602080910402602001604051908101604052809291908181526020018280546100cb906102f8565b80156101185780601f106100ed57610100808354040283529160200191610118565b820191906000526020600020905b8154815290600101906020018083116100fb57829003601f168201915b505050505081565b6105396000819055506040518060400160405280600381526020017f627965000000000000000000000000000000000000000000000000000000000081525060019080519060200190610174929190610177565b50565b828054610183906102f8565b90600052602060002090601f0160209004810192826101a557600085556101ec565b82601f106101be57805160ff19168380011785556101ec565b828001600101855582156101ec579182015b828111156101eb5782518255916020019190600101906101d0565b5b5090506101f991906101fd565b5090565b5b808211156102165760008160009055506001016101fe565b5090565b60006102258261029f565b61022f81856102aa565b935061023f8185602086016102c5565b61024881610359565b840191505092915050565b61025c816102bb565b82525050565b6000602082019050818103600083015261027c818461021a565b905092915050565b60006020820190506102996000830184610253565b92915050565b600081519050919050565b600082825260208201905092915050565b6000819050919050565b60005b838110156102e35780820151818401526020810190506102c8565b838111156102f2576000848401525b50505050565b6000600282049050600182168061031057607f821691505b602082108114156103245761032361032a565b5b50919050565b7f4e487b7100000000000000000000000000000000000000000000000000000000600052602260045260246000fd5b6000601f19601f830116905091905056fea264697066735822122064b861a75245acd301a94f25a0d51c0abc5327bf58afbc28b5624f31825db11d64736f6c63430008040033","opcodes":"PUSH1 0x80 PUSH1 0x40 MSTORE CALLVALUE DUP1 ISZERO PUSH2 0x10 JUMPI PUSH1 0x0 DUP1 REVERT JUMPDEST POP PUSH1 0x40 MLOAD PUSH2 0x6F6 CODESIZE SUB DUP1 PUSH2 0x6F6 DUP4 CODECOPY DUP2 DUP2 ADD PUSH1 0x40 MSTORE DUP2 ADD SWAP1 PUSH2 0x32 SWAP2 SWAP1 PUSH2 0x177 JUMP JUMPDEST DUP2 PUSH1 0x0 DUP2 SWAP1 SSTORE POP DUP1 PUSH1 0x1 SWAP1 DUP1 MLOAD SWAP1 PUSH1 0x20 ADD SWAP1 PUSH2 0x4F SWAP3 SWAP2 SWAP1 PUSH2 0x57 JUMP JUMPDEST POP POP POP PUSH2 0x347 JUMP JUMPDEST DUP3 DUP1 SLOAD PUSH2 0x63 SWAP1 PUSH2 0x25E JUMP JUMPDEST SWAP1 PUSH1 0x0 MSTORE PUSH1 0x20 PUSH1 0x0 KECCAK256 SWAP1 PUSH1 0x1F ADD PUSH1 0x20 SWAP1 DIV DUP2 ADD SWAP3 DUP3 PUSH2 0x85 JUMPI PUSH1 0x0 DUP6 SSTORE PUSH2 0xCC JUMP JUMPDEST DUP3 PUSH1 0x1F LT PUSH2 0x9E JUMPI DUP1 MLOAD PUSH1 0xFF NOT AND DUP4 DUP1 ADD OR DUP6 SSTORE PUSH2 0xCC JUMP JUMPDEST DUP3 DUP1 ADD PUSH1 0x1 ADD DUP6 SSTORE DUP3 ISZERO PUSH2 0xCC JUMPI SWAP2 DUP3 ADD JUMPDEST DUP3 DUP2 GT ISZERO PUSH2 0xCB JUMPI DUP3 MLOAD DUP3 SSTORE SWAP2 PUSH1 0x20 ADD SWAP2 SWAP1 PUSH1 0x1 ADD SWAP1 PUSH2 0xB0 JUMP JUMPDEST JUMPDEST POP SWAP1 POP PUSH2 0xD9 SWAP2 SWAP1 PUSH2 0xDD JUMP JUMPDEST POP SWAP1 JUMP JUMPDEST JUMPDEST DUP1 DUP3 GT ISZERO PUSH2 0xF6 JUMPI PUSH1 0x0 DUP2 PUSH1 0x0 SWAP1 SSTORE POP PUSH1 0x1 ADD PUSH2 0xDE JUMP JUMPDEST POP SWAP1 JUMP JUMPDEST PUSH1 0x0 PUSH2 0x10D PUSH2 0x108 DUP5 PUSH2 0x1F0 JUMP JUMPDEST PUSH2 0x1CB JUMP JUMPDEST SWAP1 POP DUP3 DUP2 MSTORE PUSH1 0x20 DUP2 ADD DUP5 DUP5 DUP5 ADD GT ISZERO PUSH2 0x125 JUMPI PUSH1 0x0 DUP1 REVERT JUMPDEST PUSH2 0x130 DUP5 DUP3 DUP6 PUSH2 0x22B JUMP JUMPDEST POP SWAP4 SWAP3 POP POP POP JUMP JUMPDEST PUSH1 0x0 DUP3 PUSH1 0x1F DUP4 ADD SLT PUSH2 0x149 JUMPI PUSH1 0x0 DUP1 REVERT JUMPDEST DUP2 MLOAD PUSH2 0x159 DUP5 DUP3 PUSH1 0x20 DUP7 ADD PUSH2 0xFA JUMP JUMPDEST SWAP2 POP POP SWAP3 SWAP2 POP POP JUMP JUMPDEST PUSH1 0x0 DUP2 MLOAD SWAP1 POP PUSH2 0x171 DUP2 PUSH2 0x330 JUMP JUMPDEST SWAP3 SWAP2 POP POP JUMP JUMPDEST PUSH1 0x0 DUP1 PUSH1 0x40 DUP4 DUP6 SUB SLT ISZERO PUSH2 0x18A JUMPI PUSH1 0x0 DUP1 REVERT JUMPDEST PUSH1 0x0 PUSH2 0x198 DUP6 DUP3 DUP7 ADD PUSH2 0x162 JUMP JUMPDEST SWAP3 POP POP PUSH1 0x20 DUP4 ADD MLOAD PUSH8 0xFFFFFFFFFFFFFFFF DUP2 GT ISZERO PUSH2 0x1B5 JUMPI PUSH1 0x0 DUP1 REVERT JUMPDEST PUSH2 0x1C1 DUP6 DUP3 DUP7 ADD PUSH2 0x138 JUMP JUMPDEST SWAP2 POP POP SWAP3 POP SWAP3 SWAP1 POP JUMP JUMPDEST PUSH1 0x0 PUSH2 0x1D5 PUSH2 0x1E6 JUMP JUMPDEST SWAP1 POP PUSH2 0x1E1 DUP3 DUP3 PUSH2 0x290 JUMP JUMPDEST SWAP2 SWAP1 POP JUMP JUMPDEST PUSH1 0x0 PUSH1 0x40 MLOAD SWAP1 POP SWAP1 JUMP JUMPDEST PUSH1 0x0 PUSH8 0xFFFFFFFFFFFFFFFF DUP3 GT ISZERO PUSH2 0x20B JUMPI PUSH2 0x20A PUSH2 0x2F0 JUMP JUMPDEST JUMPDEST PUSH2 0x214 DUP3 PUSH2 0x31F JUMP JUMPDEST SWAP1 POP PUSH1 0x20 DUP2 ADD SWAP1 POP SWAP2 SWAP1 POP JUMP JUMPDEST PUSH1 0x0 DUP2 SWAP1 POP SWAP2 SWAP1 POP JUMP JUMPDEST PUSH1 0x0 JUMPDEST DUP4 DUP2 LT ISZERO PUSH2 0x249 JUMPI DUP1 DUP3 ADD MLOAD DUP2 DUP5 ADD MSTORE PUSH1 0x20 DUP2 ADD SWAP1 POP PUSH2 0x22E JUMP JUMPDEST DUP4 DUP2 GT ISZERO PUSH2 0x258 JUMPI PUSH1 0x0 DUP5 DUP5 ADD MSTORE JUMPDEST POP POP POP POP JUMP JUMPDEST PUSH1 0x0 PUSH1 0x2 DUP3 DIV SWAP1 POP PUSH1 0x1 DUP3 AND DUP1 PUSH2 0x276 JUMPI PUSH1 0x7F DUP3 AND SWAP2 POP JUMPDEST PUSH1 0x20 DUP3 LT DUP2 EQ ISZERO PUSH2 0x28A JUMPI PUSH2 0x289 PUSH2 0x2C1 JUMP JUMPDEST JUMPDEST POP SWAP2 SWAP1 POP JUMP JUMPDEST PUSH2 0x299 DUP3 PUSH2 0x31F JUMP JUMPDEST DUP2 ADD DUP2 DUP2 LT PUSH8 0xFFFFFFFFFFFFFFFF DUP3 GT OR ISZERO PUSH2 0x2B8 JUMPI PUSH2 0x2B7 PUSH2 0x2F0 JUMP JUMPDEST JUMPDEST DUP1 PUSH1 0x40 MSTORE POP POP POP JUMP JUMPDEST PUSH32 0x4E487B7100000000000000000000000000000000000000000000000000000000 PUSH1 0x0 MSTORE PUSH1 0x22 PUSH1 0x4 MSTORE PUSH1 0x24 PUSH1 0x0 REVERT JUMPDEST PUSH32 0x4E487B7100000000000000000000000000000000000000000000000000000000 PUSH1 0x0 MSTORE PUSH1 0x41 PUSH1 0x4 MSTORE PUSH1 0x24 PUSH1 0x0 REVERT JUMPDEST PUSH1 0x0 PUSH1 0x1F NOT PUSH1 0x1F DUP4 ADD AND SWAP1 POP SWAP2 SWAP1 POP JUMP JUMPDEST PUSH2 0x339 DUP2 PUSH2 0x221 JUMP JUMPDEST DUP2 EQ PUSH2 0x344 JUMPI PUSH1 0x0 DUP1 REVERT JUMPDEST POP JUMP JUMPDEST PUSH2 0x3A0 DUP1 PUSH2 0x356 PUSH1 0x0 CODECOPY PUSH1 0x0 RETURN INVALID PUSH1 0x80 PUSH1 0x40 MSTORE CALLVALUE DUP1 ISZERO PUSH2 0x10 JUMPI PUSH1 0x0 DUP1 REVERT JUMPDEST POP PUSH1 0x4 CALLDATASIZE LT PUSH2 0x41 JUMPI PUSH1 0x0 CALLDATALOAD PUSH1 0xE0 SHR DUP1 PUSH4 0xC55699C EQ PUSH2 0x46 JUMPI DUP1 PUSH4 0x86B714E2 EQ PUSH2 0x64 JUMPI DUP1 PUSH4 0xE1640622 EQ PUSH2 0x82 JUMPI JUMPDEST PUSH1 0x0 DUP1 REVERT JUMPDEST PUSH2 0x4E PUSH2 0x8C JUMP JUMPDEST PUSH1 0x40 MLOAD PUSH2 0x5B SWAP2 SWAP1 PUSH2 0x284 JUMP JUMPDEST PUSH1 0x40 MLOAD DUP1 SWAP2 SUB SWAP1 RETURN JUMPDEST PUSH2 0x6C PUSH2 0x92 JUMP JUMPDEST PUSH1 0x40 MLOAD PUSH2 0x79 SWAP2 SWAP1 PUSH2 0x262 JUMP JUMPDEST PUSH1 0x40 MLOAD DUP1 SWAP2 SUB SWAP1 RETURN JUMPDEST PUSH2 0x8A PUSH2 0x120 JUMP JUMPDEST STOP JUMPDEST PUSH1 0x0 SLOAD DUP2 JUMP JUMPDEST PUSH1 0x1 DUP1 SLOAD PUSH2 0x9F SWAP1 PUSH2 0x2F8 JUMP JUMPDEST DUP1 PUSH1 0x1F ADD PUSH1 0x20 DUP1 SWAP2 DIV MUL PUSH1 0x20 ADD PUSH1 0x40 MLOAD SWAP1 DUP2 ADD PUSH1 0x40 MSTORE DUP1 SWAP3 SWAP2 SWAP1 DUP2 DUP2 MSTORE PUSH1 0x20 ADD DUP3 DUP1 SLOAD PUSH2 0xCB SWAP1 PUSH2 0x2F8 JUMP JUMPDEST DUP1 ISZERO PUSH2 0x118 JUMPI DUP1 PUSH1 0x1F LT PUSH2 0xED JUMPI PUSH2 0x100 DUP1 DUP4 SLOAD DIV MUL DUP4 MSTORE SWAP2 PUSH1 0x20 ADD SWAP2 PUSH2 0x118 JUMP JUMPDEST DUP3 ADD SWAP2 SWAP1 PUSH1 0x0 MSTORE PUSH1 0x20 PUSH1 0x0 KECCAK256 SWAP1 JUMPDEST DUP2 SLOAD DUP2 MSTORE SWAP1 PUSH1 0x1 ADD SWAP1 PUSH1 0x20 ADD DUP1 DUP4 GT PUSH2 0xFB JUMPI DUP3 SWAP1 SUB PUSH1 0x1F AND DUP3 ADD SWAP2 JUMPDEST POP POP POP POP POP DUP2 JUMP JUMPDEST PUSH2 0x539 PUSH1 0x0 DUP2 SWAP1 SSTORE POP PUSH1 0x40 MLOAD DUP1 PUSH1 0x40 ADD PUSH1 0x40 MSTORE DUP1 PUSH1 0x3 DUP2 MSTORE PUSH1 0x20 ADD PUSH32 0x6279650000000000000000000000000000000000000000000000000000000000 DUP2 MSTORE POP PUSH1 0x1 SWAP1 DUP1 MLOAD SWAP1 PUSH1 0x20 ADD SWAP1 PUSH2 0x174 SWAP3 SWAP2 SWAP1 PUSH2 0x177 JUMP JUMPDEST POP JUMP JUMPDEST DUP3 DUP1 SLOAD PUSH2 0x183 SWAP1 PUSH2 0x2F8 JUMP JUMPDEST SWAP1 PUSH1 0x0 MSTORE PUSH1 0x20 PUSH1 0x0 KECCAK256 SWAP1 PUSH1 0x1F ADD PUSH1 0x20 SWAP1 DIV DUP2 ADD SWAP3 DUP3 PUSH2 0x1A5 JUMPI PUSH1 0x0 DUP6 SSTORE PUSH2 0x1EC JUMP JUMPDEST DUP3 PUSH1 0x1F LT PUSH2 0x1BE JUMPI DUP1 MLOAD PUSH1 0xFF NOT AND DUP4 DUP1 ADD OR DUP6 SSTORE PUSH2 0x1EC JUMP JUMPDEST DUP3 DUP1 ADD PUSH1 0x1 ADD DUP6 SSTORE DUP3 ISZERO PUSH2 0x1EC JUMPI SWAP2 DUP3 ADD JUMPDEST DUP3 DUP2 GT ISZERO PUSH2 0x1EB JUMPI DUP3 MLOAD DUP3 SSTORE SWAP2 PUSH1 0x20 ADD SWAP2 SWAP1 PUSH1 0x1 ADD SWAP1 PUSH2 0x1D0 JUMP JUMPDEST JUMPDEST POP SWAP1 POP PUSH2 0x1F9 SWAP2 SWAP1 PUSH2 0x1FD JUMP JUMPDEST POP SWAP1 JUMP JUMPDEST JUMPDEST DUP1 DUP3 GT ISZERO PUSH2 0x216 JUMPI PUSH1 0x0 DUP2 PUSH1 0x0 SWAP1 SSTORE POP PUSH1 0x1 ADD PUSH2 0x1FE JUMP JUMPDEST POP SWAP1 JUMP JUMPDEST PUSH1 0x0 PUSH2 0x225 DUP3 PUSH2 0x29F JUMP JUMPDEST PUSH2 0x22F DUP2 DUP6 PUSH2 0x2AA JUMP JUMPDEST SWAP4 POP PUSH2 0x23F DUP2 DUP6 PUSH1 0x20 DUP7 ADD PUSH2 0x2C5 JUMP JUMPDEST PUSH2 0x248 DUP2 PUSH2 0x359 JUMP JUMPDEST DUP5 ADD SWAP2 POP POP SWAP3 SWAP2 POP POP JUMP JUMPDEST PUSH2 0x25C DUP2 PUSH2 0x2BB JUMP JUMPDEST DUP3 MSTORE POP POP JUMP JUMPDEST PUSH1 0x0 PUSH1 0x20 DUP3 ADD SWAP1 POP DUP2 DUP2 SUB PUSH1 0x0 DUP4 ADD MSTORE PUSH2 0x27C DUP2 DUP5 PUSH2 0x21A JUMP JUMPDEST SWAP1 POP SWAP3 SWAP2 POP POP JUMP JUMPDEST PUSH1 0x0 PUSH1 0x20 DUP3 ADD SWAP1 POP PUSH2 0x299 PUSH1 0x0 DUP4 ADD DUP5 PUSH2 0x253 JUMP JUMPDEST SWAP3 SWAP2 POP POP JUMP JUMPDEST PUSH1 0x0 DUP2 MLOAD SWAP1 POP SWAP2 SWAP1 POP JUMP JUMPDEST PUSH1 0x0 DUP3 DUP3 MSTORE PUSH1 0x20 DUP3 ADD SWAP1 POP SWAP3 SWAP2 POP POP JUMP JUMPDEST PUSH1 0x0 DUP2 SWAP1 POP SWAP2 SWAP1 POP JUMP JUMPDEST PUSH1 0x0 JUMPDEST DUP4 DUP2 LT ISZERO PUSH2 0x2E3 JUMPI DUP1 DUP3 ADD MLOAD DUP2 DUP5 ADD MSTORE PUSH1 0x20 DUP2 ADD SWAP1 POP PUSH2 0x2C8 JUMP JUMPDEST DUP4 DUP2 GT ISZERO PUSH2 0x2F2 JUMPI PUSH1 0x0 DUP5 DUP5 ADD MSTORE JUMPDEST POP POP POP POP JUMP JUMPDEST PUSH1 0x0 PUSH1 0x2 DUP3 DIV SWAP1 POP PUSH1 0x1 DUP3 AND DUP1 PUSH2 0x310 JUMPI PUSH1 0x7F DUP3 AND SWAP2 POP JUMPDEST PUSH1 0x20 DUP3 LT DUP2 EQ ISZERO PUSH2 0x324 JUMPI PUSH2 0x323 PUSH2 0x32A JUMP JUMPDEST JUMPDEST POP SWAP2 SWAP1 POP JUMP JUMPDEST PUSH32 0x4E487B7100000000000000000000000000000000000000000000000000000000 PUSH1 0x0 MSTORE PUSH1 0x22 PUSH1 0x4 MSTORE PUSH1 0x24 PUSH1 0x0 REVERT JUMPDEST PUSH1 0x0 PUSH1 0x1F NOT PUSH1 0x1F DUP4 ADD AND SWAP1 POP SWAP2 SWAP1 POP JUMP INVALID LOG2 PUSH5 0x6970667358 0x22 SLT KECCAK256 PUSH5 0xB861A75245 0xAC 0xD3 ADD 0xA9 0x4F 0x25 LOG0 0xD5 SHR EXP 0xBC MSTORE8 0x27 0xBF PC 0xAF 0xBC 0x28 0xB5 PUSH3 0x4F3182 0x5D 0xB1 SAR PUSH5 0x736F6C6343 STOP ADDMOD DIV STOP CALLER "},"methodIdentifiers":{"modifyToLeet()":"e1640622","s()":"86b714e2","x()":"0c55699c"}}}}}